:020000040800F2
:1000000000000520199B0008591800085B1800081B
:100010005D1800085F180008611800080000000063
:10002000000000000000000000000000F184000853
:10003000631800080000000091850008F58500089D
:10004000699B0008699B0008699B0008699B000880
:10005000699B0008699B0008699B0008699B000870
:10006000699B0008699B0008699B0008699B000860
:10007000699B0008699B0008699B0008699B000850
:10008000699B0008699B0008699B0008699B000840
:10009000699B0008699B0008699B0008699B000830
:1000A000699B0008699B0008699B0008699B000820
:1000B000699B0008699B0008699B0008699B000810
:1000C000699B0008699B0008699B0008699B000800
:1000D000699B0008699B0008699B0008699B0008F0
:1000E000699B0008699B0008699B0008699B0008E0
:1000F000699B0008699B0008699B0008699B0008D0
:10010000699B0008699B0008699B0008699B0008BF
:10011000699B0008699B000865180008699B000836
:10012000699B0008699B0008699B0008699B00089F
:10013000699B0008699B0008699B0008699B00088F
:10014000699B0008699B0008699B000871180008FA
:10015000699B0008699B0008699B0008699B00086F
:10016000699B0008699B0008699B0008699B00085F
:10017000699B0008699B0008699B0008699B00084F
:10018000699B0008699B0008699B0008699B00083F
:10019000699B0008699B0008699B0008699B00082F
:1001A0007D180008699B000889180008699B0008F1
:1001B000699B0008699B0008699B0008699B00080F
:0801C000699B0008699B00081F
:1001D00010B5054C237833B9044B13B10448AFF381
:1001E00000800123237010BD90000020000000005B
:1001F000849D000808B5034B1BB103490348AFF3C6
:10020000008008BD0000000094000020849D0008CC
:1002100053B94AB9002908BF00281CBF4FF0FF316D
:100220004FF0FF3000F07AB9ADF1080C6DE904CE63
:1002300000F006F8DDF804E0DDE9022304B07047C1
:100240002DE9F0478C460D460446089E002B51D1FF
:100250008A4217466DD9B2FA82FEBEF1000F0BD06A
:10026000CEF1200C01FA0EF520FA0CFC02FA0EF782
:100270004CEA050C00FA0EF44FEA174A250CBCFBB9
:10028000FAF81FFA87F90AFB18CC45EA0C4508FB77
:1002900009F3AB420AD9ED1908F1FF3280F023814E
:1002A000AB4240F22081A8F102083D44ED1AA4B20D
:1002B000B5FBFAF00AFB105544EA054400FB09F9C6
:1002C000A14509D9E41900F1FF3380F00A81A14565
:1002D00040F2078102383C44A4EB090440EA08409C
:1002E0000021002E61D024FA0EF4002334607360E4
:1002F000BDE8F0878B4207D9002E54D0002186E854
:1003000021000846BDE8F087B3FA83F1002940F0E8
:100310008E80AB4202D3824200F2FA80841A65EBEF
:1003200003050120AC46002E3FD086E81010BDE842
:10033000F08712B90127B7FBF2F7B7FA87FEBEF1D3
:10034000000F34D1EB1B3A0C1FFA87FC0121B3FBE1
:10035000F2F8250C02FB183345EA03450CFB08F3C1
:10036000AB4207D9ED1908F1FF3002D2AB4200F2DF
:10037000D1808046ED1AA3B2B5FBF2F002FB105516
:1003800043EA05440CFB00FCA44507D9E41900F13D
:10039000FF3302D2A44500F2B8801846A4EB0C0447
:1003A00040EA08409DE731463046BDE8F087CEF18F
:1003B000200405FA0EF307FA0EF720FA04F83A0CB7
:1003C00025FA04F448EA0308B4FBF2F14FEA1845B1
:1003D00002FB11441FFA87FC45EA044501FB0CF3BC
:1003E000AB4200FA0EF409D9ED1901F1FF3080F0AB
:1003F0008A80AB4240F2878002393D44EB1A1FFAF3
:1004000088F5B3FBF2F002FB103345EA034500FB2D
:100410000CF3AB4207D9ED1900F1FF386FD2AB42B4
:100420006DD902383D44EB1A40EA01418FE7C1F132
:10043000200722FA07F88B4005FA01F448EA030383
:1004400020FA07FE4FEA134CFD404EEA040EB5FBBE
:10045000FCF94FEA1E440CFB19551FFA83F844EAD5
:10046000054509FB08F4AC4202FA01F200FA01FA70
:1004700008D9ED1809F1FF3043D2AC4241D9A9F1B6
:1004800002091D442D1B1FFA8EFEB5FBFCF00CFB70
:1004900010554EEA054400FB08F8A04507D9E418BA
:1004A00000F1FF3529D2A04527D902381C4440EA83
:1004B0000940A4EB0804A0FB02894C45C6464D4602
:1004C00015D312D056B1BAEB0E0364EB050404FA4F
:1004D00007F7CB401F43CC40376074600021BDE874
:1004E000F0871846F8E69046E0E6C245EAD2B8EB57
:1004F000020E69EB03050138E4E72846D7E74046DA
:1005000091E78146BEE7014678E702383C4445E77B
:10051000084608E7A8F102083D442BE7704700BFF2
:100520001FB51022002168464FF4803409F063FBA8
:100530001248134B134A80E81800002301248262FA
:1005400083600361836180F82030C362C360C4614B
:1005500080F83030446101F063FD08B100F05AFECC
:100560000723694605488DE818000023029301F02F
:10057000FDFD08B100F04EFE04B010BD2484002043
:10058000002201400100000F10B588B0044614227B
:10059000002103A809F02FFB22681A4B9A422ED1A2
:1005A00003F58B33032403A917485A6C42F4806285
:1005B0005A645A6C02F480620092009A1A6B42F0FC
:1005C00020021A631A6B02F020020192019A1A6B40
:1005D00042F001021A631B6B049403F001030293BF
:1005E000029B4FF4F863039302F084FA012303A9FA
:1005F0000648039300230494059302F07BFA08B0A5
:1006000010BD00BF00220140001402400000024063
:1006100008B50948094B0360002303714371436126
:1006200083610123036201F099FE18B1BDE808401F
:1006300000F0F0BD08BD00BF6C8400200030024017
:10064000026882B0084B9A420BD1D3F8302803F5E8
:10065000006342F480521A631B6B03F480530193CE
:10066000019B02B0704700BF0030024008B50B4844
:100670000B4B0360002343608360C36003614361ED
:100680008361036243628362C362036301F0C2FE5B
:1006900018B1BDE8084000F0BDBD08BD9084002041
:1006A0000000055070B58CB004461422002107A844
:1006B00009F0A1FA2268384B9A426BD1374B0226D7
:1006C0000D2507A95A6B0024354842F001025A63F0
:1006D0005A6B02F001020192019A1A6B42F0100269
:1006E0001A631A6B02F010020292029A1A6B42F01D
:1006F00008021A631A6B02F008020392039A1A6B3B
:1007000042F040021A631A6B02F040020492049A0B
:100710001A6B42F080021A631A6B02F08002059293
:10072000059A1A6B42F001021A631B6B089603F0DC
:1007300001030693069B602307930B9502F0DAF9F9
:10074000082307A917480793089609940A940B955C
:1007500002F0D0F94FF4007307A9134807930896E5
:1007600009940A940B9502F0C5F94FF4BC4307A90C
:100770000E480793089609940A940B9502F0BAF96B
:10078000502307A90A480793089609940A940B95E1
:1007900002F0B0F90CB070BD000005500038024006
:1007A00000100240000C024000180240001C0240F1
:1007B0000000024008B50D480D4B03600023836222
:1007C000C3620363436343608360C36001F0A7FEB9
:1007D00008B100F01FFD0121044801F059FF18B1D4
:1007E000BDE8084000F016BD08BD00BFE084002051
:1007F00000B0024007B50D4B02689A4212D1A3F532
:10080000F0435A2005211A6B42F400021A630022B9
:100810001B6B03F400030193019B01F059FD5A2067
:1008200001F08EFD03B05DF804FB00BF00B0024094
:1008300007B501231148124AC0F814D080E80C0013
:100840000023802203828DF800308DF80120E12200
:100850008DF803308DF804308DF805308361C36165
:100860004FF400038DF80220036202F049F808B14A
:1008700000F0D0FC03B05DF804FB00BF2085002031
:1008800000800240F0B58DB004461422002107A874
:1008900009F0B1F922682F4B9A4259D1A3F5904340
:1008A000022603250B241A6B07A92B48002742F0C8
:1008B00000721A631A6B02F000720192019A1A6BAD
:1008C00042F080621A631A6B02F080620292029A0E
:1008D0001A6B42F000621A631A6B02F00062039214
:1008E000039A1A6B42F040021A631A6B02F040023C
:1008F0000492049A1A6B42F004021A631A6B02F013
:1009000004020592059A1A6B42F001021A631B6BEE
:10091000089603F001030693069B4FF4D043079318
:100920000A950B9402F0E6F8322307A90B480793C7
:10093000089609970A950B9402F0DCF8862307A91C
:1009400007480793089609970A950B9402F0D2F886
:100950000DB0F0BD008002400018024000080240C7
:100960000000024000B589B01C22002101A809F056
:1009700042F915481022154B042102614022036000
:10098000002342614FF4C072436082614FF4006201
:10099000836002624FF48052C36142620722836225
:1009A0000223029204920322C160039169440193DD
:1009B00005920693079304F098FD08B100F02AFC15
:1009C00009B05DF804FB00BF68850020400100A06D
:1009D000F0B587B01422002101A809F00CF92A4BC8
:1009E0001E68002E4DD10122022703250C241A6017
:1009F00001A9264B26489A6B42F001029A639B6B31
:100A0000029703F00103049505940093009B4FF6B1
:100A10008373019302F06EF848F2331301A91D4865
:100A20000193029703960495059402F063F84CF243
:100A3000037301A91848019302970396049505943E
:100A400002F058F84FF63F0301A9144801930297AA
:100A500003960495059402F04DF8282301A9104847
:100A60000193029703960495059402F043F8082336
:100A700001A90C480193029703960495059402F08E
:100A800039F807B0F0BD00BFAC00002000380240CC
:100A90000010024000180240000C02400014024006
:100AA000001C02400008024008B506F021FB08F0D7
:100AB000E7FE012007F011FCFBE770477047704725
:100AC00030B5074D87B00FCD01AC0FC42B680021A6
:100AD00001A8236007F0E9FB024B186007B030BDA6
:100AE0009C9D00089C8500202DE9F04F93B01422B6
:100AF00000218D4F0DA88D4E09F07DF88C4B3846A6
:100B000020211A6B0024DFF840A2012542F01002D8
:100B1000DFF83882DFF838B24FF400591A631A6BE5
:100B200002F010020292029A1A6B42F040021A631B
:100B30001A6B02F040020392039A1A6B42F002020F
:100B40001A631A6B02F002020492049A1A6B42F0C2
:100B500008021A631A6B02F008020592059A1A6BD2
:100B600042F004021A631A6B02F004020692069A1B
:100B70001A6B42F001021A631A6B02F0010207922B
:100B8000079A1A6B42F400721A631A6B02F400722D
:100B90000892089A1A6B42F480721A631A6B02F474
:100BA00080720992099A1A6B42F480621A631A6B76
:100BB00002F480620A920A9A1A6B42F020021A63C7
:100BC0001A6B02F020020B920B9A1A6B42F0800211
:100BD0001A6301221B6B03F080030C930C9B02F041
:100BE00079F8304600220C2102F074F8514B0122B2
:100BF00008211846019302F06DF8304601224FF4A7
:100C0000805102F067F8504600224FF4005102F084
:100C100061F840460022C82102F05CF808220DA9C4
:100C200045480D9200920E940F9401F063FF4FF42B
:100C3000805142480E940D910DA90F9401F05AFF76
:100C400040213846CDF838B00D910DA90F9401F030
:100C500051FF202138460E950D910DA90F94109447
:100C600001F048FF41F20C0130460E950D910DA99F
:100C70000F94109401F03EFF0DA93148CDF8349047
:100C80000E940F9401F036FF019B0DA9009A1846AF
:100C90000E950D920F94109401F02CFF10230DA9C6
:100CA00038460E940D930F9401F024FF48F204038C
:100CB0000DA950460E940D930F9401F01BFF0DA942
:100CC0005046CDF834900E950F94109401F012FF19
:100CD0000DA93046CDF83490CDF838B00F9401F01E
:100CE00009FFC8230DA940460E950D930F9410944B
:100CF00001F000FF04230DA940460E940D930F94BC
:100D000001F0F8FE4FF480630DA90E480D93022305
:100D10000F940E93032310930A23119301F0EAFE1C
:100D200013B0BDE8F08F00BF000C0240002002406D
:100D30000038024000280240001002400024024017
:100D40000008024000040240001C0240001802405B
:100D50000000121008B512480122124B1249C2605D
:100D600080E80A0000238360036143618361C361FB
:100D7000036202F0F7FB08B100F04CFA00210848CA
:100D800002F041FC08B100F045FA0021044802F0ED
:100D900060FC18B1BDE8084000F03CBA08BD00BFD7
:100DA000EC850020FFEAC0000054004008B512485E
:100DB0000122124B1249C26080E80A0000238360BE
:100DC000036143618361C361036202F0CBFB08B13D
:100DD00000F020FA0021084802F015FC08B100F0EC
:100DE00019FA0021044802F034FC18B1BDE80840AB
:100DF00000F010BA08BD00BFA0850020FFEAC000C7
:100E0000005C004010B514228AB0044600210DEBAE
:100E1000020008F0F0FE2368254A934221D1254CB8
:100E200005A92548236B43F002032363236B03F0DA
:100E300002030193019B4FF4407305931223069321
:100E4000012307930423099301F054FE236C43F418
:100E500000132364236C03F400130293029B0AB073
:100E600010BD164A9342FAD1124C05A91448236BBF
:100E700043F080032363236B03F080030393039BFE
:100E80004FF4C073059312230693012307930323A2
:100E900008930423099301F02DFE236C43F400030F
:100EA0002364236C03F400030493049BD7E700BF7F
:100EB000005400400038024000040240005C004042
:100EC000001C024010B58EB034220021002401A87D
:100ED00008F091FE2648274B8460C460046180F8C6
:100EE000344080F8354080F8364080E818002823E8
:100EF0004361092383613523C3610B23036240F2FD
:100F00001523436240F21B13836240F23523C36210
:100F100040F21D13036302F047FC08B100F07AF9B8
:100F200002214FF4F0724FF4887311480591FF21AC
:100F3000029206914FF4C0610B92002208910721A2
:100F4000019409914FF0404103940A9101A904933F
:100F500007940C938DF834408DF835408DF8364069
:100F600002F0EEFC08B100F055F90EB010BD00BF64
:100F7000388600200068014070B58CB00446142209
:100F8000002107A808F037FE22683E4B9A4276D12E
:100F900003F5504302250E2607A95A6C00243A484F
:100FA00042F080625A645A6C02F080620192019AA7
:100FB0001A6B42F010021A631A6B02F010020292CE
:100FC000029A1A6B42F400721A631A6B02F40072EE
:100FD0000392039A1A6B42F480621A631A6B02F44A
:100FE00080620492049A1A6B42F040021A631A6BF0
:100FF00002F040020592059A1A6B42F480721A635D
:101000001B6B089503F480730693069B10230793CC
:101010000B9601F06FFD4EF6FF7307A91B4807936F
:10102000089509940A940B9601F064FDF72307A92B
:1010300017480793089509940A940B9601F05AFDF6
:101040004FF4805307A913480793092308950B937E
:1010500009940A9401F04EFD4FF4464307A90E4847
:101060000793089509940A940B9601F043FD5820C4
:101070002246052101F02CF9582001F061F90CB04D
:1010800070BD00BF00680140001002400024024013
:1010900000280240001802400020024070B5B4B0A1
:1010A00030220021022507A8012608F0A4FD142201
:1010B000002102A808F09FFD0021842213A808F057
:1010C0009AFD002402F066FC2D4B07A81A6C42F032
:1010D00080521A641B6C03F080530093009B294BD1
:1010E0001A6842F440421A604FF480321B6808923A
:1010F0004FF4800203F440430C960E9219220193A0
:10110000019B09230F924FF4C87207931092129318
:101110000D95119502F000FD02F044FC0F2306210D
:1011200002A802934FF4A053039505934FF4805304
:101130000494069302F0B2FE134B13A81795139371
:101140006423159514934FF4C073169518930523D3
:1011500019951A9303231C961B934FF400731D9645
:101160001F934FF000631E942394249429942C948D
:101170002E943293339402F073FF34B070BD00BFED
:1011800000380240007000406848B10108B500F026
:1011900017FFFFF783FFFFF7A7FCFFF7C1F9FFF782
:1011A00037FAFFF763FAFFF705FBFFF741FBFFF79D
:1011B000D9FBFFF7CFFDFFF7F9FDFFF783FE00F046
:1011C0002BF800F0B5F800F035F900F0D9F900F08F
:1011D00033FA00F079FA00F0C3FC00F031FD00F0C2
:1011E0007DFD00F0C9FD00F095FB00F013FE00F05E
:1011F0003DFE00F059FEFFF763FC07F042F8FEE702
:101200000268034B9A4201D100F0E6BE704700BF6E
:10121000001000407047000008B50B48FF230B4A40
:1012200080E80C0000230122C360826002614361F8
:101230008361C361036202F013FC18B1BDE808408A
:10124000FFF7E8BF08BD00BFE0860020001000A047
:101250002DE9F04114228AB0044600210DEB020072
:1012600008F0C9FC22682D4B9A4253D12C4B022521
:10127000032409269A6B4FF0040805A9294842F077
:10128000020200279A639A6B02F002020192019A0D
:101290001A6B42F010021A631A6B02F010020292EB
:1012A000029A1A6B42F002021A631A6B02F00202EF
:1012B0000392039A1A6B42F008021A631B6BCDF873
:1012C000148003F00803069508940493049B099680
:1012D00001F010FC402305A9134805930A23069545
:1012E00009930797089401F005FC05A90E48CDF86D
:1012F0001480069507970894099601F0FBFB4FF4BC
:10130000605305A90948059306950797089409961F
:1013100001F0F0FB0AB0BDE8F08100BF001000A0B2
:10132000003802400010024000040240000C02405D
:1013300010B592B000241822002101A808F05BFC2F
:101340002C22214607A8009408F055FC3048314B68
:1013500004614461846180E818007F238360FF2377
:10136000C36003F09DF908B1FFF754FF012201A902
:1013700027488DF804408DF805408DF80640059407
:10138000069403F0DAF908B1FFF744FF01220024C4
:1013900069461F488DF800208DF801208DF8022045
:1013A0008DF8034003F037FA08B1FFF733FF8DF8EB
:1013B0001C404FF480738DF81D4007A98DF81E4026
:1013C00008940B940C940D940E940F9401241048DF
:1013D00022468DF84040119303F07CFA08B1FFF7E4
:1013E00019FF4FF40073012207A909488DF8404006
:1013F000119303F06FFA08B1FFF70CFF02220021EE
:10140000034803F005FB08B1FFF704FF12B010BD5D
:101410002C870020002800400268044B9A4204D127
:10142000034A136F43F400431367704700280040DA
:10143000003802402448402208B54263234A244B26
:10144000C261082203600023026401220363436037
:101450008363C3638360036143618361C3604362E9
:101460008362C36242648364C364036543658365C6
:10147000C265036603F012FB08B1FFF7CBFE154807
:101480000322154B1821426040220360002342636F
:10149000012203638363C363826003618361C3606A
:1014A00043628362C362016442648364C36403650C
:1014B00043658365C265036603F0F0FA18B1BDE8C1
:1014C0000840FFF7A7BE08BDD087002000EE02004D
:1014D000045C01404C870020245C01400268224BE0
:1014E0009A4210B5044688B01BD1204B1A684AB9FD
:1014F0001F49486C40F400004864496C01F4000145
:1015000001910199013203A91A481A60F02303934B
:10151000022304930023059306930A23079301F003
:10152000E9FA2268144B9A421CD1104B1A684AB946
:101530000F49486C40F400004864496C01F4000114
:1015400002910299013203A90C481A604FF480639A
:101550000393022304930023059306930A2307931E
:1015600001F0C8FA08B010BD045C0140B0000020D2
:101570000038024000200240245C01400018024074
:10158000054B064A1A6000225A609A60DA601A61B6
:101590005A619A61704700BF54880020002C0140B6
:1015A00070B588B004461422002103A808F023FB7C
:1015B00022681E4B9A4236D103F586330C2402264C
:1015C00003255A6C0DEB0401194842F400625A6479
:1015D0005A6C02F400620092009A1A6B42F0040204
:1015E0001A631A6B02F004020192019A1A6B42F01C
:1015F00008021A631B6B049603F008030695079410
:101600000293029B4FF4F853039301F073FA0423FF
:101610000DEB0401074803930023049605930695F8
:10162000079401F067FA08B070BD00BF002C0140BC
:1016300000080240000C024008B50B484FF0402360
:101640000360002343608360C3600361436183617F
:10165000C36103624362836203F067FF18B1BDE8B0
:101660000840FFF7D7BD08BDD888002010B588B066
:1016700004461422002103A808F0BDFA2368B3F140
:10168000402F1DD103F5FC3303A90E481A6C42F418
:1016900080321A641A6C02F480320192019A1A6B39
:1016A00042F008021A631B6B03F008030293029BCB
:1016B00080230393022304930823079301F01AFA6B
:1016C00008B010BD000C024008B510484FF48273FA
:1016D0004FF440720E49C2604FF4007280E80A0075
:1016E000002382610722836003614361C361036257
:1016F0004362836203630823C262436303F04CFFC7
:1017000018B1BDE80840FFF785BD08BD2489002059
:101710000038004030B589B004461422002103A8E7
:1017200008F069FA22681B4B9A4231D103F5003365
:101730000224052503A91A6C174842F480421A6452
:101740001A6C02F480420092009A1A6B42F4807282
:101750001A631A6B02F480720192019A1A6B42F0BA
:1017600002021A631B6B039403F0020304940795AF
:101770000293029B01F0BEF94FF4404303A90748CE
:1017800003930023049405930693079501F0B2F99F
:1017900009B030BD00380040002002400004024083
:1017A0000E4B07B51A6C0F216FF0010042F080520A
:1017B0001A641A6C02F080520092009A5A6C42F439
:1017C00080425A6400225B6C03F480430193019BC6
:1017D00000F07EFD03B05DF804FB00BF003802405E
:1017E00010B5014688B00022362000F071FD362089
:1017F00000F0A6FD144B01A903A81A6C134C42F08B
:1018000010021A641B6C03F010030293029B02F097
:1018100009FC02F0E7FB0E4B4000236040F2E73387
:10182000E3600C4BB0FBF3F001380023606020460E
:101830002361A36004F01AF920B9204603F0E6FF03
:1018400008B010BD0120FBE7003802408889002065
:101850000010004040420F007047FEE7FEE7FEE741
:10186000FEE77047014803F0EBBF00BF8889002006
:10187000014801F025BB00BF90940020014802F010
:1018800002B800BF38860020014800F076BE00BFD5
:10189000E084002008B50A4B0246196809B90949D5
:1018A00019601868694602448A4206D908F05EF950
:1018B0000C2303604FF0FF3008BD1A6008BD00BF65
:1018C000B4000020589700200F490020D1F888303C
:1018D00043F47003C1F888300C4B1A6842F00102DF
:1018E0001A6098601A6822F0847222F480321A60BA
:1018F000074A5A601A6822F480221A60D8604FF0B2
:1019000000638B60704700BF00ED00E000380240CC
:101910001030002400B5102289B000210DEB020028
:1019200008F069F900231448144A019302930393C1
:101930008360C36003614361836180E80C0004F04D
:1019400095F808B1FFF766FC4FF4805304A90A48E4
:10195000049304F087F908B1FFF75CFC002301A9A8
:10196000054801930293039304F010FA08B1FFF7BE
:1019700051FC09B05DF804FBC88900200004014057
:10198000036886B0234A93420BD1234B5A6C42F032
:1019900001025A645B6C03F001030193019B06B0E2
:1019A0007047B3F1804F0BD103F50E331A6C42F040
:1019B00001021A641B6C03F001030293029BEEE721
:1019C000164A93420AD1144B1A6C42F002021A646E
:1019D0001B6C03F002030393039BE0E7104A93425E
:1019E0000AD10D4B1A6C42F008021A641B6C03F00A
:1019F00008030493049BD2E70A4A9342CFD1064BD3
:101A00005A6C42F002025A645B6C03F002030593C5
:101A1000059BC4E70000014000380240000400407C
:101A2000000C004000040140026882B0074B9A425B
:101A30000AD103F508331A6C42F040021A641B6C99
:101A400003F040030193019B02B07047001800406F
:101A500010B514228AB0044600210DEB020008F0F4
:101A6000CAF82368354A934216D1354B1A6B42F0B7
:101A700001021A631B6B03F001030093009B4FF4F8
:101A800080730593022305A92E4806930123099329
:101A900001F030F80AB010BDB3F1804F0DD103F55D
:101AA0000E331A6B42F001021A631B6B03F0010341
:101AB0000193019B4FF40043E3E7234A934211D182
:101AC0001F4B05A921481A6B42F002021A631B6BD7
:101AD00003F002030293029B102305930223069353
:101AE0000993D5E71A4A934211D1154B05A9194814
:101AF0001A6B42F480721A631B6B03F480730393B6
:101B0000039B01230593022306930993C0E7124A1E
:101B10009342BFD10A4B05A910481A6B42F08002CC
:101B20001A631B6B03F080030493049B402305930B
:101B30000223069309230993AAE700BF000001408E
:101B4000003802400000024000040040000402404F
:101B5000000C00400020024000180040001C024021
:101B600010B510229AB0002400210DEB020008F0FD
:101B700042F81C22214608A801940294039408F01C
:101B80003AF82C2221460FA808F035F82A482B4BAA
:101B90008460C46004614461846180E8180003F0DB
:101BA00065FF08B1FFF736FB4FF4805304A92248C4
:101BB000049304F057F808B1FFF72CFB1E4803F01C
:101BC0006FFF08B1FFF726FB002401A91A48019412
:101BD0000294039404F0DAF808B1FFF71BFB6023CA
:101BE000002208A91448089309940A940B940C94B1
:101BF0000D940E9403F0A6FF08B1FFF70BFB4FF412
:101C0000005200230FA90C4814924FF000720F935A
:101C1000109311931293139315931693179218938D
:101C2000199304F0DFF808B1FFF7F4FA0248FFF760
:101C30000FFF1AB010BD00BF888A002000000140CD
:101C400010B58EB010220021002403A807F0D3FFA6
:101C50001C22214600940DEB02000194029407F02F
:101C6000CAFF1D484FF080438460C46004618461F2
:101C700080E8180003F0FAFE08B1FFF7CBFA4FF442
:101C8000805303A91448039303F0ECFF08B1FFF756
:101C9000C1FA114803F004FF08B1FFF7BBFA0024B2
:101CA00069460D480094029404F070F808B1FFF7FB
:101CB000B1FA6023002207A9074807930894099402
:101CC0000B9403F03FFF08B1FFF7A4FA0248FFF7B7
:101CD000BFFE0EB010BD00BFC88A002010B58EB088
:101CE00010220021002403A807F085FF1C222146B2
:101CF00000940DEB02000194029407F07CFF1C4855
:101D00001C4B8460C4600461846180E8180003F0A7
:101D1000ADFE08B1FFF77EFA4FF4805303A91448D3
:101D2000039303F09FFF08B1FFF774FA104803F024
:101D3000B7FE08B1FFF76EFA002469460C4800941C
:101D4000029404F023F808B1FFF764FA602300223C
:101D500007A907480793089409940B9403F0F2FE2F
:101D600008B1FFF757FA0248FFF772FE0EB010BD38
:101D7000488A00200004004010B58EB010220021D7
:101D8000002403A807F037FF1C22214600940DEB26
:101D900002000194029407F02EFF1C481C4B846043
:101DA000C4600461846180E8180003F05FFE08B13C
:101DB000FFF730FA4FF4805303A91448039303F05C
:101DC00051FF08B1FFF726FA104803F069FE08B189
:101DD000FFF720FA002469460C480094029403F0AF
:101DE000D5FF08B1FFF716FA60230C2207A90748B0
:101DF0000793089409940B9403F0A4FE08B1FFF72D
:101E000009FA0248FFF724FE0EB010BD088A002030
:101E1000000C004010B588B01C220021002401A84D
:101E200007F0E9FE0F48104B8460C46004618461D0
:101E300080E8180003F034FE08B1FFF7EBF96023E7
:101E4000002201A90748019302940394059403F02A
:101E500079FE08B1FFF7DEF90248FFF7F9FD08B097
:101E600010BD00BF088B00200018004008B50C48CA
:101E70004FF4E13E0B4B0C2280E808400023426106
:101E80008360C36003618361C3610362436204F0E2
:101E9000D7F918B1BDE80840FFF7BCB908BD00BFCD
:101EA000488B00200010014008B50C484FF4E13E7B
:101EB0000B4B0C2280E80840002342618360C36022
:101EC00003618361C3610362436204F0B9F918B12D
:101ED000BDE80840FFF79EB908BD00BFC88B0020D1
:101EE0000014014030B514228BB0044600210DEBE4
:101EF000020007F080FE23682B4A934233D12B4B1C
:101F00000225072405A95A6C294842F010025A6498
:101F10005A6C02F010020092009A1A6B42F0020210
:101F20001A631A6B02F002020192019A1A6B42F0D4
:101F300001021A631B6B069503F0010309940293D7
:101F4000029B8023059300F0D5FD4FF4007305A993
:101F5000184805930023069507930893099400F009
:101F6000C9FD0BB030BD144A9342FAD10F4B05A9FD
:101F700012485A6C42F020025A645A6C02F0200255
:101F80000392039A1A6B42F004021A631B6B03F06C
:101F900004030493049BC0230593022306930323A5
:101FA000089308230993DAE7001001400038024043
:101FB00000040240000002400014014000080240FA
:101FC00008B5032000F072F90020FFF709FCFFF7C5
:101FD000E7FB002008BD0000034A044B11681B7892
:101FE0000B441360704700BF488C002004000020A1
:101FF000014B1868704700BF488C002038B5044674
:10200000FFF7F6FF0546631C1EBF044B1B78E41860
:10201000FFF7EEFF401B8442FAD838BD04000020D1
:1020200038B50446002800F09B80056C25B9FEF702
:10203000ABFA656484F83C50236CDB0600F18E80BB
:10204000236C23F4885323F0020343F00203236438
:10205000444B5A6822F440325A605A6861680A4315
:102060005A60236821695A6822F480725A605A685B
:1020700042EA0122A1685A605A6822F040725A600E
:102080005A680A43E1685A609A6822F400629A60CA
:102090009A680A4334499A60A26A8A4252D099687F
:1020A00021F07061996099680A43E16A9A609A68C0
:1020B00022F040529A609A680A439A609A68A1692D
:1020C00022F002029A609A6842EA41029A6094F809
:1020D0002020002A3ED05A68616A42F40062013929
:1020E0005A605A6822F460425A605A6842EA4132A1
:1020F0005A600020DA6AE16922F470020139DA627A
:10210000DA6A42EA015294F83010DA629A6822F4EC
:1021100000729A609A6842EA412261699A609A68FC
:1021200022F480629A609A6842EA81229A6060642E
:10213000236C23F0030343F001032364002384F89A
:102140003C3038BD9A6822F070629A609A6822F03A
:102150004052B2E75A6822F40062C9E70120EDE775
:10216000012038BD002301400100000F0023F7B516
:10217000019390F83C30012B71D00D680123046865
:10218000092D80F83C30AEB28A6831D906EB46039F
:102190004FF0070EE7681E3B0EFA03FE27EA0E0714
:1021A000E7603D4FBD421ED1E36843EA0263E3604E
:1021B0004A68062A4FEA82032AD81344676B591FDC
:1021C0001F238B4006FA01F127EA03036363626B66
:1021D00011436163314B9C4239D0002380F83C307D
:1021E000184603B0F0BDE76802FA03F33B43DEE7AD
:1021F00005EB45034FF0070E27690EFA03FE02FABE
:1022000003F327EA0E07276127693B432361CFE7E2
:102210000C2A0ED81344216BA3F123021F239340F1
:1022200006FA02F221EA03032363236B1A432263B3
:10223000D0E713441F22E16A413B9A4021EA02029F
:1022400006FA03F1E262E26A1143E162C2E7122D8B
:1022500007D1134A536843F480035360BDE702205B
:10226000BFE70D4B9D4201D0112DB6D10C499D42C7
:102270004A6842F400024A60AFD10A4B0A4A1B681E
:10228000B3FBF2F20A2353430193019B002BA4D02A
:10229000019B013BF8E700BF120000100020014045
:1022A000002301400000002040420F00074A0002C6
:1022B000D36800F4E06023F4E0631B041B0C43F0DC
:1022C000BF6343F400330343D360704700ED00E085
:1022D000194B30B5DC68C4F30224C4F10703251D93
:1022E000042B28BF0423062D4FF001058CBF033CAF
:1022F000002405FA03F3002803F1FF3301EA030188
:1023000001FA04F105FA04F404F1FF3402EA0402CC
:1023100042EA01024FEA021207DB00F16040D2B24A
:1023200000F5614080F8002330BD00F00F00D2B20C
:10233000024B1A5430BD00BF00ED00E014ED00E088
:10234000002808DB4209012300F01F0003FA00F017
:10235000014B43F82200704700E100E010B504464D
:1023600008B9012010BD437F03F0FF0213B90277C3
:10237000FEF766F9022363772379E3B92368134AEA
:102380005A619A6822F018029A6062792368D2B979
:102390004FF0FF321A6100209A68616922F06002F2
:1023A0000A43A1699A609A6822F080020A439A60FF
:1023B0000123637710BDE2682046A16800F008F8A9
:1023C0000028E2D0CDE72269E4E700BFB71DC104D1
:1023D0001F2310B513F1FF3306D321FA03F4E407EA
:1023E000F8D5082A14D009D872B900684161836809
:1023F00023F018031A438260002010BD102A05D074
:10240000182A01D1062BF0D9012010BD072BFAE7BD
:102410000F2BF8E738B5044600283DD090F835304A
:102420000BB9FEF73FF922680223E56884F83530DE
:102430001A4B11680B4061681360102963691068BA
:1024400043EA010343EA0503256943EA0503A56856
:1024500043EA0503A56943EA0503256A43EA050340
:10246000656A43EA0503A56A43EA0503E56A43EAA8
:102470000503256B43EA050343EA0003136001D11A
:10248000E3699361D368002043F01E03D360012306
:10249000E06484F8353038BD012038BD07F0E0FF36
:1024A00070B590F83440012C35D00124866D00259C
:1024B00080F8344090F83540012C4FF0020428D1C8
:1024C00080F8354004684565256825F48025256039
:1024D00063608368402B19D1A260E160C26D3F2325
:1024E0009340B360236843F016032360636943F0AD
:1024F00080036361036C1BB1236843F0080323600E
:102500002368002043F00103236070BDA160E260F6
:10251000E4E780F83450022070BD406D704710B57C
:10252000044630B390F8393003F0FF021BB980F84D
:102530003820FEF75FF9226802236168002084F8E2
:102540003930136823F440330B43A1681360536B95
:1025500023F007030B43E1685363136C23F47F53A9
:1025600023F03F030B4313640123E06384F8393005
:1025700010BD012010BD70477047036870B55E68DC
:1025800004461D68F20714D5E90512D51A6822F42D
:1025900080721A60C26B42F00102C26301229A602B
:1025A000042380F83930002380F83830436903B1C0
:1025B0009847B20616D5AB0414D523681A6822F4DE
:1025C00000521A6020229A60E36B43F00203E36337
:1025D000042384F83930002384F8383063690BB160
:1025E00020469847300716D5290514D523681A6860
:1025F00022F400621A6008229A60E36B43F004033D
:10260000E363042384F83930002384F838306369A5
:102610000BB12046984772070BD56B0509D5236887
:1026200020461A6822F480621A6004229A60FFF73A
:10263000A2FFB00714D5A90512D523681A6822F4A1
:1026400000721A6002229A60E36BE363012384F84C
:102650003930002384F8383023690BB1204698477D
:10266000F20613D5EB0411D5236820461A6822F42C
:1026700080521A6010229A60E36BE363012384F8AE
:102680003930002384F83830FFF776FF70BD000042
:1026900090F83830012B4FF00203F0B537D00E011F
:1026A000012280F83930831980F838201C4FDD6909
:1026B0001A6A5C6A45EA0242093D0368012D0FD897
:1026C00004F07F4E4EEA020269B9596A39400A4362
:1026D0005A6282699A61426A22F07F429A6210E0ED
:1026E00042EA0462A9B1D9690644012D01EA070151
:1026F00042EA0102DA61B2691A6102D824F07F4429
:102700001C62012380F83930002380F838301846E5
:10271000F0BD596A39400A435A6282699A61F0E70A
:10272000F0FFFC0070B5044629B14FF40063C360AC
:102730004FF480438360E3692268002BE068A3685C
:10274000156808BF4FF4806143EA00032E4818BFA4
:102750000021284043F40073034301200B4313601E
:102760001568FFF74BFC2368402201201D605A606A
:102770005D68FFF743FC236801205D6000259D60D4
:10278000DD609A6922F0BE021204120C42F080024F
:102790009A619E69FFF732FC236801209E61DD612A
:1027A000DD69FFF72BFC22680120184BD56141F24F
:1027B000180551590B4043F0087343F0040353517B
:1027C0005659FFF71BFC23680120114A5E5103F59F
:1027D00080531A601D68FFF711FC226802F58053D0
:1027E0001D60A369012B07D141F21C01535843F42A
:1027F000803343F0400353506369064A998811605F
:102800001A68054B1A6070BD0F8120FF233FDEF868
:102810008020C1024080024044800240F8B590F818
:10282000443005461646822B30D002688223890147
:1028300080F84430136901F4F86403F01C0121436B
:10284000048AE402A4B20C4344F001041461FFF7CB
:10285000CFFB074614F0010007D12B685B699BB2E0
:102860003360012385F84430F8BDFFF7C1FBC01B7E
:10287000B0F5803F07D30123032085F844300023BF
:1028800085F84530F8BD2B681C69E3E70220F8BDE8
:1028900090F84430422B70B505462ED042238C016F
:1028A00092B280F8443004F4F864036844F00304FE
:1028B000186900F01C0020432C8A5A61E402A4B27B
:1028C00004431C61FFF794FB064614F0010003D19A
:1028D000012385F8443070BDFFF78AFB801BB0F5FB
:1028E000803F07D30123032085F84430002385F877
:1028F000453070BD2B681C69E7E7022070BD000001
:102900000023F7B504460093002800F0DD8090F81E
:10291000443003F0FF021BB980F84520FDF7B2FFF9
:102920006A4B5A6C42F480425A645B6C03F48043F5
:102930000193019B664B5A6822F400025A605A6860
:10294000216A0A435A60236803F580531A6842F0EB
:1029500001021A60FFF74CFB0546236803F580521D
:102960001268D0071DD41D6901F036FB594B5A4A35
:1029700025F01C050344934222D845F0080523683E
:102980004FF40042002120461D61FFF781FF0546FC
:1029900068B3012501212046FFF7C4FE84F84450A6
:1029A0000BE0FFF725FB401BB0F5FA7FD5D90325D7
:1029B000002384F8445084F84530284603B0F0BD25
:1029C000464B474A0344934202D845F00C05D6E7EC
:1029D000444B454A03449342D1D9444B444A0344AF
:1029E000934294BF45F0040545F01005C7E740F653
:1029F000FF70FFF703FB6368002B53D0FFF7F8FA73
:102A000041F2883706466A4601212046FFF706FF55
:102A1000FFF7EEFA801BB8420BD901212046FFF7E1
:102A200081FE0123032584F84430002384F84530D7
:102A3000C3E7009B5907E6D54FF48052002120469A
:102A4000FFF726FF0028A4D1FFF7D2FA41F288371A
:102A500006466A4601212046FFF7E0FEFFF7C8FA66
:102A6000801BB842D9D8009B9A06F2D56A461F212E
:102A70002046FFF7D3FE00288BD1009B13F01002F5
:102A800018BF4FF400625B074CBF00234FF4804334
:102A9000E260A36000212046FFF744FE012384F892
:102AA00044308AE7A3682946E26820465B0843EA87
:102AB000D20292B2FFF7ECFE00287FF46AAF40F634
:102AC000FF70FFF79BFAE5E7012576E70038024043
:102AD0000038014000D3CEFEBFE1E40040F1E9FD43
:102AE0003F787D0100796CFCFF596202001F0AFAF1
:102AF0007FF0FA022DE9F04F0B6885B0DFF8C08156
:102B0000019300236C4ADFF8BC914FF0010E019C49
:102B10000EFA03FE0EEA0406B64540F0B3804C6898
:102B200024F01007022F16D14FEAD30A03F0070B47
:102B30004FF00F0C00EB8A0A4FEA8B0BDAF82050AB
:102B40000CFA0BFC25EA0C0C0D6905FA0BF545EAAD
:102B50000C05CAF820504FEA430A0325D0F800B00C
:102B600004F0030C05FA0AF5013F0CFA0AFCED43E8
:102B7000012F0BEA050B4CEA0B0CC0F800C011D872
:102B8000876807EA050BCF6807FA0AFC4CEA0B07CF
:102B90008760476827EA0E0EC4F300179F4047EA94
:102BA0000E074760C7683D408F6807FA0AF73D4344
:102BB000C560E50066D5D8F8445023F0030703F05C
:102BC000030E4FF00F0C45F4804507F180474FEAA4
:102BD0008E0EC8F8445007F59C37D8F8445005F4D9
:102BE00080450395039D0CFA0EF5D7F808A02AEA54
:102BF000050C324DA8424CD005F58065A8424AD05C
:102C000005F58065A84248D005F58065A84246D004
:102C100005F58065A84244D0484544D005F50065D7
:102C2000A84242D005F58065A84240D005F58065F0
:102C3000A8423ED005F58065A84214BF0A250925A3
:102C400005FA0EF514F4803F45EA0C05BD606FEA05
:102C5000060715680CBF3D40354314F4003F15606E
:102C600055680CBF3D40354314F4801F556095688E
:102C70000CBF3D403543A4029560D56854BF3D402C
:102C80003543D5600133102B7FF43FAF05B0BDE86D
:102C9000F08F0025D4E70125D2E70225D0E70325F0
:102CA000CEE70425CCE70525CAE70625C8E70725B2
:102CB000C6E70825C4E700BF003C01400000024011
:102CC00000380240001402400369194214BF012079
:102CD000002070470AB1816170470904FBE72DE9C4
:102CE000FF47044690F8B8029DF8307001289DF81F
:102CF00034E0BDF838C029D00125002612F0800F3D
:102D00004FF0280084F8B85202F07F0900FB014020
:102D100008BF354680F83D6080F83830A0F840C0E4
:102D200080F8391080F83FE080F83A9080F83B5006
:102D300080F83C70CDF808C020688DE8804003F032
:102D4000FDFF84F8B86204B0BDE8F0870220FAE71E
:102D500090F8B832012B10B5044609D0012380F851
:102D6000B832006804F078F8002084F8B80210BD8A
:102D7000022010BD2DE9F04107468AB000283BD063
:102D800090F8B93203F0FF021BB980F8B82206F0C0
:102D900097FD3C4603236D4607F1040854F8100BD9
:102DA0003E4687F8B93203F08CFE0FCC0FC50FCC2E
:102DB0000FC594E8030085E8030098E80E00386822
:102DC0006D4603F03DFE56F8100B012103F07FFE27
:102DD0000FCE0FC50FCE0FC594E8030085E80300A2
:102DE00098E80E00386803F031FF0123002087F8CF
:102DF000B9320AB0BDE8F0810120FAE7F0B5282425
:102E00009DF81470069E04FB0104BDF81C5084F864
:102E10003B2084F83F306FB90327022B84F84270BF
:102E20002BD0BB4229D0012B31D12823002203FB18
:102E300001032AE04FF0020E84F842E0032B26D86B
:102E400001A454F823F000BF592E00082B2E0008CF
:102E50007B2E00087B2E0008012F18D1BAB925B9A6
:102E6000282303FB010383F85170282303FB01038C
:102E700093F851204AB1022207E0282303FB010303
:102E8000D2B993F85140002CF5D183F84220282480
:102E9000002204FB010383F8391019465E649D6427
:102EA000383183F85C20DA6483F85D20027C0068A6
:102EB000BDE8F04004F034B893F85020DAE700BFE2
:102EC0002DE9F04F066887B00446304603F05EFEF9
:102ED000012840F0B080206803F054FE002800F084
:102EE000AA80206803F04EFE870203D523684FF4C2
:102EF00000125A61206803F045FEC50203D523681D
:102F00004FF480125A61206803F03CFE400103D563
:102F100023684FF080625A61206803F033FE810716
:102F200002D5236802225A61206803F02BFE82003A
:102F300010D5D6F84034204623F02E03C6F840348E
:102F400006F00AFD0121206803F024FE23684FF0FB
:102F500000525A61206803F015FEC30142D525686E
:102F6000D5F840340493D5F840340593059B23F0FD
:102F70002E030593049B9F070DD5049BD80706D508
:102F8000AB69204623F00053AB6106F0E1FC059BE2
:102F900043F002030593049B190719D5059B43F0E1
:102FA00008030593049B5A0750D5A169022945D10E
:102FB000049B206803F4C023B3F5802F18BF0121C0
:102FC00003F0E8FD204606F0CFFC204606F0C0FCEA
:102FD000049B9B0603D5059B43F020030593059BAB
:102FE000C5F84034206803F0CDFD070705D520461D
:102FF00006F0AAFC236808225A61206803F0C2FD8B
:10300000850112D54FF0000A06F5A06828274FF079
:103010000209D346206803F01AFF0190A3689A457D
:1030200023D323684FF000725A61206803F0AAFD91
:10303000C30600F11E8207B0BDE8F08FE368032BE2
:10304000C0D14EF66022C5F80424BBE7204606F046
:103050008FFCD5F84034226823F02E03C5F84034A5
:10306000936943F000539361B2E70AF00F03019AAA
:1030700022FA03F3D80740F18A80D8F800305FFACB
:103080008AF5206813F4004F00F004816A0100F50E
:10309000A063D618B168490713D50421B160F1685F
:1030A00041F00201F160B168890542D5F368294613
:1030B000206843F00203F36003F0CEFE4FF4007388
:1030C000C7E0B168890602D52021B160EBE7B1689D
:1030D000090715D5F1684FF0050E039341F0020181
:1030E0000292F16007FB054181F85DE01021B160BB
:1030F0000821B160294603F0AFFE029A039BD2E794
:10310000B1684905CFD5F168039341F002010292FD
:10311000F160294603F0A0FE10210820039BB16056
:1031200007FB0541029A81F85D004FF48061B160B0
:10313000B9E7B168C8073DD5216949B1306907FBD6
:10314000054EC0F31200DEF84810091ACEF84C10F4
:1031500007FB054E0120CEF858B08EF85D00B06038
:103160009EF83F1011F0FD0F16D1F3682946206834
:1031700043F00203F36003F06FFE1023B36007FB1C
:10318000054595F8503083F0010385F850300AF179
:10319000010A08F1200841E70329F0D1D15841F094
:1031A0000051D15002468EF85C002946204606F0B8
:1031B000D7FBE4E7B168890736D5F16807FB05401E
:1031C00021F00201F16090F85D1001290CD180F826
:1031D0005C1007FB05432946C6F80890204693F883
:1031E0005C2006F0BDFBD2E70529F0D0062901D00E
:1031F000082914D107FB0541886D01300328886533
:1032000085BF0420C1F858B081F85C9081F85C005B
:10321000D15821F0804141F00041D150D9E7032934
:10322000D7D180F85C90F3E7B16811F0800112D03B
:10323000F3682946206843F00203F36007FB054367
:103240009A6D01329A65062283F85D2003F004FE30
:103250008023B3609BE7B368DA0698D507FB054285
:1032600092F83F30032B0AD19165F3682946206814
:1032700043F00203F36003F0EFFD1023E9E713F0DE
:10328000FD03FAD193652369002BF6D1032382F85D
:103290005D30EAE7690100F5A0628E18B36813F0AB
:1032A000040E06D00423B360F36843F00203F36016
:1032B0006DE7B36813F0200314D02023B36007FB3D
:1032C000054393F83D20012A7FF461AF83F83DE088
:1032D000294683F85C90F36843F00203F36003F03F
:1032E000BBFD54E7D6F808E01EF0400F11D007FBF5
:1032F0000542042182F85D100121936582F83D109A
:103300002946F36843F00203F36003F0A5FD402370
:103310009FE7B36813F4007E05D0F368294643F0B5
:103320000203F360C8E6B368DB0711D5F26807FB58
:103330000543294642F00202C3F858E00293F260C6
:1033400003F08AFD0122029BB26083F85D201EE734
:10335000B3681B070ED50823294607FB0545B36054
:10336000F36843F00203F36003F076FD052385F86C
:103370005D300CE7B368DB0615D507FB0543032278
:1033800083F85D2093F83D20C3F858B02AB993F82C
:103390003C2012B9012283F83D20F368294643F00E
:1033A0000203F36067E7B3681B060CD5F368294690
:1033B00007FB054543F00203F36003F04DFD0623D0
:1033C00085F85D3044E7B3685B050FD5F36829469F
:1033D00007FB054543F00203F36003F03DFD1023B6
:1033E000B3604FF48063B3600823C0E7B368980705
:1033F0007FF5CDAEF36807FB054023F00203F360D1
:1034000090F85D30012B0ED180F85C3090F83F30A1
:10341000023B012B3FF6DDAE90F8513083F0010303
:1034200080F85130D5E6032B02D180F85C90D0E6CD
:10343000042BFAD0052B02D180F85C30C9E6062BAC
:1034400002D0082B7FF4C5AE07FB0540836D013326
:10345000032B836585BF0423C0F858B080F85C90C7
:1034600080F85C308B5823F0804343F000438B504E
:10347000AFE62668B36923F01003B361356AC5F37C
:103480004342022A29D1C5F30A18B8F1000F24D00B
:1034900005F00F05282707FB0547796CE9B142467F
:1034A000304603F061FB7B6C06F5A06643447B6409
:1034B000FB6C4344FB646B019A1911690A4A0A4088
:1034C0005AB19A5922F0804242F000429A5197F83C
:1034D000503083F0010387F850302268936943F03D
:1034E00010039361A7E500BF0000F81F38B590F8FE
:1034F000B8320446012B0DD0012580F8B85200687F
:1035000003F0D9FA2946206803F07FFB002084F8F5
:10351000B80238BD022038BD90F8B832012B10B582
:10352000044609D0012380F8B832006803F0AAFDF0
:10353000002084F8B80210BD022010BD006803F01E
:1035400046BB282303FB010191F85C007047282348
:1035500003FB0101C86C7047006803F0EABB006818
:1035600003F0DCBB10B5044600284AD090F8413087
:1035700003F0FF021BB980F84020FDF743FC242331
:10358000E16884F84130012923681A6822F00102B9
:103590001A60626822F070621A619A6822F400422E
:1035A0009A60A26824D142F400429A605A680020CE
:1035B000616942F0007242F400425A60DA6822F413
:1035C0000042DA6022690A43A16942EA0122216AC3
:1035D000DA60E2690A431A601A6842F001021A606E
:1035E0002023606484F84130206384F8420010BDD9
:1035F00042F4044202299A60D8D14FF400625A6022
:10360000D4E7012010BD90F84120D2B2202A10B595
:103610001DD190F84030012B19D0242380F841307F
:1036200003681C6824F001041C601C6824F48054A6
:103630001C601C6821431960196841F00101196080
:10364000002380F8412080F84030184610BD022049
:1036500010BD10B590F84140E4B2202C1CD190F878
:103660004030012B18D0242380F8413003681A68B9
:1036700022F001021A601A6822F4706242EA012103
:1036800019601A6842F001021A60002380F8414074
:1036900080F84030184610BD022010BDD2014FF016
:1036A000000C2DE9F043843204684F68A318E568E4
:1036B000D1F800E05868C5F30B450EF10106D1F8CA
:1036C000189000F470403D445860E068C0F30B402F
:1036D000304440EA0540CD685860E068C0F30A0015
:1036E0000544986800F4704098608868E668013086
:1036F000C6F30A0630440E6940EA0540986018692E
:1037000020F0070018611E619D6991F8320091F860
:103710003180C3F818C091F8305045EA096545EA90
:10372000082545EA00459D61586920F0FF00586171
:1037300048695861D86920F4E06020F00700D8613A
:10374000086ACD690543DD61986A486AC3F828C0F4
:1037500098621EB3012E23D0B01E022822D9072E54
:103760000CBF02200120DD6AA7EB0E0705F0E02563
:10377000DD628D6AC96A45437843033040EA0540FB
:10378000D862186B20F4FF6020F0070018631963FB
:10379000A35843F00103A350BDE8F0830420E2E7FF
:1037A0000320E0E70220DEE738B50446002863D0B6
:1037B00090F8A13003F0FF021BB980F8A020FDF7BC
:1037C000DBFB0223A06884F8A13023689A6922F009
:1037D00070429A61626899690243E0680243206915
:1037E000024360690A4325499A619A680A409A60CF
:1037F0009A6842EA0042A0690243E0699A60DA6886
:103800000A40DA60DA6842EA0042206A0243606AEB
:10381000DA601A690A401A611A6942EA0042A06A2B
:1038200002431A615A6911405961E16A5A6942EAD0
:103830000142216B0A435A61D96A94F8360001F0BB
:103840007F4194F83550D962D96A94F834200A43FC
:1038500042EA052242EA00420020DA625A6B42F054
:1038600006025A639A6942F001029A610123C4F880
:10387000A40084F8A13038BD012038BD00F800F064
:10388000704770477047036870B59E6B04465D6B68
:10389000720714D5690712D55A6B22F004025A63D5
:1038A0000422DA63D0F8A43043F00103C0F8A43056
:1038B000002380F8A12080F8A030FFF7E1FFB207D5
:1038C00016D5AB0714D5236820465A6B22F00202A6
:1038D0005A630222DA63D4F8A4301343C4F8A43044
:1038E000042384F8A130002384F8A030FFF7C8FF38
:1038F000F00710D5E9070ED5236820465A6B22F051
:1039000001025A630122DA63002384F8A12084F8BB
:10391000A030FFF7B6FF320711D52B070FD523686C
:1039200020465A6B22F008025A630822DA63012308
:1039300084F8A130002384F8A030FFF7A3FF70BD06
:10394000F8B590F8A03006468E469446012B4FF00D
:1039500002001DD034240D4686F8A100012704FB87
:10396000026486F8A07038340FCD0FC40FCD0FC499
:103970000FCD0FC42B683046624671462360FFF7B7
:103980008DFE336800205F6286F8A17086F8A00083
:10399000F8BD0000024A136843F480731360704757
:1039A00000700040194B37B51A6C194C42F0805228
:1039B0001A641B6C03F080530193019B236843F44A
:1039C00080332360FEF714FB05466368DA030CD5E9
:1039D000236843F400332360FEF70AFB0C4C0546D2
:1039E00063689B030AD5002006E0FEF701FB401B3D
:1039F000B0F57A7FE9D9032003B030BDFEF7F8FABD
:103A0000401BB0F57A7FEBD9F5E700BF00380240E4
:103A1000007000402DE9F041069D04460F46164611
:103A2000984621688A683A4214BF01220022B242B5
:103A300002D10020BDE8F0816B1CF3D04DB9042306
:103A4000012084F84130636C43F001036364BDE8F6
:103A5000F081FEF7CDFAA0EB08008542E1D2EEE757
:103A600037B50446FEF7C4FA0546002C4DD094F84D
:103A70004030012B4BD0012384F8403094F8412092
:103A800002F0FF033AB984F840302046FDF7E0FB2E
:103A900041F28833A3642068A16802680139A36CED
:103AA00022F4F85242EA012220210260002200930F
:103AB00020462B46FFF7AEFF10BB2268E569E3689E
:103AC00011682B43256A21F07F412B43656821F063
:103AD000D00143EA05630B43A1691360636955682C
:103AE0000B43216943EA01430A4929400B435360D0
:103AF000136843F0010313600123606484F84130CC
:103B0000002384F8403003B030BD0120FBE70220E1
:103B1000F9E700BFFEF8E0FF2DE9F341044618B9CC
:103B2000012002B0BDE8F0810368D80710D42368F3
:103B300099075ED42368190700F1A38023685A0708
:103B400000F1C480A269002A40F02E810020E8E73D
:103B5000934B9A6802F00C02042A07D09A6802F08C
:103B60000C02082A0AD15B685A0207D58C4B1B68E5
:103B70009B03DCD56368002BD9D1D1E76368884DFE
:103B8000B3F5803F11D12B6843F480332B60FEF7EF
:103B90002FFA834D06462B689F03C8D4FEF728FAF8
:103BA000801B6428F7D90320BBE79BB92B6823F45B
:103BB00080332B602B6823F480232B60FEF718FAE8
:103BC00006462B689803B2D5FEF712FA801B6428CC
:103BD000F7D9E8E7B3F5A02F2B6803D143F480238E
:103BE0002B60D0E723F480332B602B6823F48023F1
:103BF000CCE76B4B9A6812F00C0F07D09A6802F072
:103C00000C02082A11D15B6859020ED4644B1A6861
:103C1000920702D5E268012A82D11A68216922F04E
:103C2000F80242EAC1021A6084E7E3685C4DBBB166
:103C30002B6843F001032B60FEF7DAF906462B6888
:103C40009F0707D52B68226923F0F80343EAC203D4
:103C50002B606FE7FEF7CCF9801B0228EFD9A2E7B3
:103C60002B6823F001032B60FEF7C2F906462B6890
:103C700098077FF55FAFFEF7BBF9801B0228F6D9E6
:103C800091E76369464D83B16B6F43F001036B6746
:103C9000FEF7AEF906466B6F9B073FF54FAFFEF799
:103CA000A7F9801B0228F6D97DE76B6F23F001038B
:103CB0006B67FEF79DF906466B6F9F077FF53EAF7A
:103CC000FEF796F9801B0228F6D96CE7344B1A6C84
:103CD000D00027D41A6C012642F080521A641B6C63
:103CE00003F080530193019B2E4D2B68D9051BD502
:103CF000A3682B4D012B27D12B6F43F001032B67BA
:103D000041F28835FEF774F9254F80463B6F9B07DB
:103D10003FD5002E3FF416AF214A136C23F0805399
:103D200013640FE70026DFE72B6843F480732B60F2
:103D3000FEF75EF907462B68DA05D9D4FEF758F985
:103D4000C01B6428F7D92EE7ABB92B6F41F2883836
:103D500023F001032B672B6F23F004032B67FEF77F
:103D600047F907462B6F9807D3D5FEF741F9C01BDB
:103D70004045F7D917E7052B2B6F03D143F0040318
:103D80002B67B9E723F001032B672B6F23F00403A4
:103D9000B5E7FEF72DF9A0EB0800A842B6D902E777
:103DA0000038024000700040244DAB6803F00C0363
:103DB000082B3FF4B5AE2B68022A23F080732B60EA
:103DC0002ED1FEF715F906462B68990122D4226AF6
:103DD000E3691343626A43F0005343EA8213E26AE1
:103DE00043EA0263A26A154C5208013A43EA0243CD
:103DF0006B602B6843F080732B60FEF7F9F8054683
:103E000023689A013FF5A2AEFEF7F2F8401B0228A4
:103E1000F6D9C8E6FEF7ECF8801B0228D4D9C2E632
:103E2000FEF7E6F804462B689B017FF58FAEFEF7A0
:103E3000DFF8001B0228F6D9B5E600BF00380240C3
:103E4000134908B58B6803F00C03042B03D0082B2F
:103E500003D0104808BD104808BD4A684B6849683F
:103E600002F03F0213F48003C1F388111ABF0A481D
:103E700000230848A1FB0001FCF7CAF9044B5B686A
:103E8000C3F3014301335B00B0FBF3F008BD00BF97
:103E9000003802400024F40040787D012DE9F04113
:103EA0000D46044610B90120BDE8F081464A13686A
:103EB00003F00F038B4228D321688F0730D4C80743
:103EC00043D4414A136803F00F039D4267D322682D
:103ED000510770D4130707D53C4A2169936823F42E
:103EE000604343EAC1039360FFF7AAFF374B384AA8
:103EF0009B68C3F30313D35CD840364B1860002093
:103F0000FDF76EFC0020BDE8F081136823F00F037D
:103F10000B431360136803F00F039942C3D1CBE73F
:103F200011F0040F294B03D09A6842F4E0529A60D2
:103F30000E0703D59A6842F460429A609A68A068B6
:103F400022F0F00202439A60B9E761681F4B012931
:103F50001A681CD112F4003FA5D09A6841F2883843
:103F60001A4E22F003020A439A60FEF741F8074610
:103F7000B368626803F00C03B3EB820FA1D0FEF7C5
:103F800037F8C01B4045F3D90320BDE8F081022972
:103F900002D112F0007FDFE712F0020FDCE71368B6
:103FA00023F00F032B431360136803F00F039D42AC
:103FB0007FF479AF8BE70549E0688B6823F4E05321
:103FC00003438B6086E700BF003C0240003802409C
:103FD000E09D000800000020014B1868704700BFFA
:103FE00000000020044B054A9B68C3F38223D35C86
:103FF000034A1068D840704700380240F09D00081E
:1040000000000020044B054A9B68C3F34233D35C95
:10401000034A1068D840704700380240F09D0008FD
:10402000000000200F2303600B4B9A6802F003028C
:1040300042609A6802F0F00282609A6802F4E052EC
:10404000C2609B68DB0803F4E0530361034B1B6809
:1040500003F00F030B60704700380240003C024041
:104060002DE9F7430268044612F001060BD0B84B65
:10407000996821F400019960466B99683143B6FA5A
:1040800086F67609996012F4002512D0B049E56BE6
:10409000D1F88C30B5F5801F23F4401308BF0126FA
:1040A00043EA050316BFB5FA85F500256D09C1F889
:1040B0008C30D10210D5A648216CD0F88C30B1F5E7
:1040C000800F23F4400343EA0103C0F88C3000F072
:1040D0008581002908BF012512F0807F18BF0126C5
:1040E000920631D59A4B9B4F1A6C42F080521A645B
:1040F0001B6C03F080530193019B3B6843F4807376
:104100003B60FDF775FF80463B68DB0540F1688149
:104110008F4F3B6F13F4407340F06D81236B03F4BA
:104120004072B2F5407F8A4A40F08B81916823F05B
:10413000704021F4F81120F4407001439160C3F302
:104140000B03116F0B4313672368DA060CD5804A03
:10415000D2F88C1021F08071C2F88C10D2F88C103B
:10416000A06B0143C2F88C105F0408D57849606EDB
:10417000D1F8902022F440320243C1F89020180474
:1041800008D57349A06ED1F8902022F44022024352
:10419000C1F89020D90308D56D49E06ED1F8902080
:1041A00022F440120243C1F890209A0308D56849CE
:1041B000206FD1F8902022F440020243C1F89020F1
:1041C0005F0608D56249606CD1F8902022F00302A6
:1041D0000243C1F89020180608D55D49A06CD1F8BB
:1041E000902022F00C020243C1F89020D90508D596
:1041F0005749E06CD1F8902022F030020243C1F818
:1042000090209A0508D55249206DD1F8902022F0CF
:10421000C0020243C1F890205F0508D54C49606D8B
:10422000D1F8902022F440720243C1F89020180582
:1042300008D54749A06DD1F8902022F4406202438E
:10424000C1F89020D90408D54149E06DD1F89020FB
:1042500022F440520243C1F890209A0408D53C4908
:10426000206ED1F8902022F440420243C1F8902001
:104270005F0208D53649A06FD1F8902022F0806205
:104280000243C1F8902098020CD53148E16FD0F874
:104290009020B1F1006F22F0006208BF01250A43AF
:1042A000C0F8902013F0080F18BF0125590308D556
:1042B0002749606FD1F8902022F040720243C1F884
:1042C00090201A0209D52249D4F88000D1F8902014
:1042D00022F080520243C1F89020012E00F0B580F8
:1042E000B3F1007F00F0B180012D75D1184D2B681E
:1042F00023F080532B60FDF77BFE06462B689F0062
:1043000000F1278121680E0301D5E36B1BB1CD02BB
:1043100022D5236C03BB0E4AD2F88830D2F888002D
:1043200003F4403300F0E0400343606943EA801344
:10433000A06943EA0063C2F88830D2F88C30A06AE2
:1043400023F4F853013843EA0023C2F88C3003E029
:104350000038024000700040880215D5E36FB3F1C9
:10436000006F11D1824AD2F88830D2F8880003F069
:10437000706300F0E0400343606943EA8013206A01
:1043800043EA0043C2F888300A0719D57849D1F8C2
:104390008820D1F8883002F0706203F44033134370
:1043A000626943EA8213E26943EA0273C1F8883022
:1043B000D1F88C30E26A23F440331343C1F88C30D7
:1043C0006B4C236843F080532360FDF711FE0546D4
:1043D00023689B0040F1C480002009E001267BE6B1
:1043E000FDF706FEA0EB080064287FF68DAE0320E3
:1043F00003B0BDE8F083226B02F4407293423FF4B5
:104400008DAE3B6F3A6F23F4407342F480323A67CB
:104410003A6F22F480323A673B673B6FD8077FF5EB
:104420007DAEFDF7E5FD41F2883980463B6F990787
:104430003FF574AEFDF7DCFDA0EB08004845F5D96B
:10444000D5E7916821F4F81178E6494E336823F0F6
:1044500080633360FDF7CCFD074633681B0172D4DF
:104460002268D70712D5636B83B9D6F88430D6F8A3
:10447000841003F4403301F070610B43616843EA38
:104480008113A16843EA0173C6F88430160303D58B
:10449000E36BB3F5801F05D0D0021ED5236CB3F5B6
:1044A000800F1AD13249D1F88430D1F8840003F456
:1044B000403300F0E0400343606843EA8013E06863
:1044C00043EA0063C1F88430D1F88C00636A20F0BD
:1044D0001F00013B0343C1F88C30D10111D52449A1
:1044E000D1F88430D1F8840003F0706300F0E0402C
:1044F0000343606843EA8013206943EA0043C1F83C
:10450000843092010DD5236962681B0443EA82134B
:10451000E26843EA0263A26843EA0273144AC2F8FB
:104520008430134E336843F080633360FDF760FDE1
:10453000074633681B013FF5D7AEFDF759FDC01B99
:104540006428F6D953E7FDF753FDC01B642884D9CE
:104550004DE7FDF74DFD801B64287FF6CFAE46E7A3
:10456000FDF746FD401B64287FF632AF3FE700BFF2
:1045700000380240B0F5002F2AD12C4BD3F88C2004
:1045800002F44012B2F5801F32D0B2F5001F2DD0D8
:10459000002A48D15A6858685202244A00F03F0065
:1045A00054BF234B234BD2F88810B3FBF0F3D2F85F
:1045B0008800C0F388105843C1F30363B0FBF3F0E5
:1045C000D2F88C30C3F304230133B0FBF3F070470F
:1045D000B0F5801F27D1154BD3F88C2002F4400290
:1045E000B2F5800F04D0B2F5000FD0E71248704743
:1045F0005A68586853020D4A00F03F0054BF0C4BF4
:104600000C4BD2F88410B3FBF0F3D2F88400C0F363
:1046100088105843C1F30363B0FBF3F0D2F88C3039
:1046200003F01F03D0E70020704700BF00380240AE
:104630000024F40040787D010080BB00026838B59A
:10464000D368044623F0A003D360FDF7D1FC0546F0
:104650002368DB689B0601D5002038BDFDF7C8FC48
:10466000401BB0F57A7FF3D9032038BD38B5036815
:104670000446DA68520601D5002038BD4FF0FF32FB
:10468000DA60FDF7B5FC05462368DB685B06F3D40A
:10469000FDF7AEFC401BB0F57A7FF5D9032038BD9D
:1046A00038B50446B0B1437F03F0FF0213B9027777
:1046B000FCF7B2FE0223CA222046637723685A62BF
:1046C00053225A62FFF7D2FF236828B1FF225A62B1
:1046D00004236377012038BD9A68256922F4E0023B
:1046E00022F040029A60626899682A4365692A4309
:1046F0000A43A1689A60E2681A611A6942EA0142B3
:10470000A1691A61DA6822F08002DA60DA6C22F0BC
:104710000802DA64DA6C0A43DA64FF225A6201237F
:10472000637738BD0023092803D840EA0310C0B2DC
:1047300070470A380133C0B2F5E7F8B5037F064683
:104740000F460225012B2FD00123457703770368FD
:104750004D7808788C789B6842BB13F0400308BF03
:104760000B73FFF7DFFF01462846FFF7DBFF02462A
:104770002046FFF7D7FF3B7B40EA034040EA014079
:1047800040EA02243368CA2230465A6253225A62EF
:10479000FFF76CFF33680546A0B1FF225A6204237D
:1047A00073770023337701252846F8BD2D0213F0D7
:1047B000400345EA004008BF0B7320430C7B40EAEE
:1047C0000444DFE704F07F34786924F0FE441C6081
:1047D0009A6822F480229A603A69996802430A43EF
:1047E0009A60DA6822F08002DA609B689B060AD43D
:1047F0003046FFF723FF30B13368FF225A620423AB
:1048000035777377CFE73368FF225A6201237377D6
:1048100000233377C8E7F8B5037F05460226012B4E
:1048200030D00123467703774B78C8788E780C78A0
:10483000002A48D1DA0603D523F010030A334B705F
:10484000FFF770FF07464878FFF76CFF02463046D7
:10485000FFF768FF40EA443040EA074040EA02249C
:104860002B68CA2228465A6253225A62FFF7FEFE7C
:104870002B68064640B1FF225A6204236B7700235F
:104880002B7701263046F8BD24F07F4424F0C00485
:104890005C60DA6822F08002DA609B689B060AD4CA
:1048A0002846FFF7CBFE30B12B68FF225A62042363
:1048B0002E776B77E5E72B68FF225A6201236B772F
:1048C00000232B77DEE71B0243EA0040304340EA37
:1048D0004434C5E7037F012B2DE9F04704464FF030
:1048E000020056D0012360770E6A23772368087888
:1048F00091F801908D7891F824808F699B68002A47
:1049000049D113F0400346EA070608BF0B73FFF7CF
:1049100009FF82464846FFF705FF02462846FFF793
:1049200001FF81464046FFF7FDFE0D7B46EA054547
:1049300045EA090545EA0A4545EA022545EA0065D2
:10494000CB69CA224E681E4323685A6253225A62B8
:104950008A6AB2F5807F9A683DD122F480729A60AB
:104960009A6822F480529A60FDF742FB80462368E1
:10497000DF6817F001071FD0DD615E649A6842F4BA
:1049800080729A60FF22236800205A6201232077F8
:104990006377BDE8F0873E4313F0400345EA060520
:1049A00008BF0B7345EA0045087B45EA092545EA3F
:1049B000004545EA0865C3E7FDF71AFBA0EB0800D0
:1049C000B0F57A7FD3D92368FF2203205A6260773B
:1049D0002777BDE8F08722F400729A609A6822F483
:1049E00000529A60FDF704FB80462368DF6817F0E9
:1049F000020705D01D629E649A6842F40072C0E707
:104A0000FDF7F6FAA0EB0800B0F57A7FEDD9DAE70A
:104A1000037F012B4FF0020310B51DD043770368CD
:104A20009C6824F4006424F008040C43CA215962F1
:104A300053215962D96C21F00601D964D96C0A431B
:104A4000DA649C609A6842F400629A60FF225A62BB
:104A50000123437700230377184610BD0E4B0168EE
:104A60001A6841F65833B2FBF3F20B68920023F454
:104A700080330B6012F1FF3207D2D0F8803043F060
:104A80004003C0F88030032070470B6813F4803374
:104A9000F0D11846704700BF0000002070B50446F2
:104AA000002800F0C48090F87D3003F0FF021BB9AD
:104AB00080F87C20FCF712FD0223204684F87D302C
:104AC000FFF7CCFFE368012B00F0A080022B0CBFA6
:104AD00020230023A268022A00F09C80032A00F011
:104AE0009780012A0CBF4FF4806500252268514948
:104AF0008A4203D05048824240F08F804F48036082
:104B0000E36913B38A4203D04B4B9A4240F087804B
:104B10004FF40020FFF72EFD2368494A934202D04C
:104B20002032934203D14FF48010FFF723FD0A2275
:104B3000E36950435B02B0FBF3F0B0FBF2F302FB1E
:104B40001300092808BF013323626368E26B33F066
:104B5000020166D1012A18BF4FF40071226839485A
:104B600016683040266B3343666B10603343A66B88
:104B700010683343666A33432669334366693343B7
:104B80000343206A43EA0053A06A2B430B4313609C
:104B9000536823F4604323F00F035360A369516803
:104BA0000343E06A0343A06C0B435360264B9168B8
:104BB0000B409360236D91680343E06C03430B4308
:104BC000216C01390B43616C013943EA0123936085
:104BD000D36823F47D6323F00F031B041B0CD36005
:104BE000636DD168A06D034300200B43216E43EA3F
:104BF0000143E16D013943EA0123D3600123C4F885
:104C0000800084F87C0084F87D3070BD102361E75B
:104C100043F001034FF4006568E70C486FE700209C
:104C20007AE7012A14BF00214FF4007196E70120B2
:104C300070BD00BF04580140245801400058014095
:104C4000045C014010C005FF0080F8FF005C0140DB
:104C5000836B1A68D36B43F48073D36370472DE979
:104C6000F043054689B00E46FDF7C2F900238146A0
:104C7000082128680093019301F0C5FC044640BB5D
:104C8000296D2868090401F0C9FD044608BB4FF0EE
:104C9000FF33069002A92868029308230393302368
:104CA0000493022305930123079301F099FC2868DC
:104CB00001F0E5FD044660B9074640F22A4828683D
:104CC000436B13EA080F436B07D0190718D5082464
:104CD0008463204609B0BDE8F0839B0207D501F04C
:104CE000C9FB08AB03EB8703013743F8200CFDF742
:104CF0007FF9A0EB09000130E1D14FF00044E8E773
:104D0000436B9A0701D50224E2E7436B9B0601D56A
:104D10002024DDE740F2FF538363009B1BBA7360DE
:104D2000019B1BBA3360D4E72DE9F041164686B0EB
:104D300005461F460A4639B9836B43F00063836317
:104D4000012006B0BDE8F08190F83400C0B201281F
:104D500066D1F419E96D00238C42AB6304D9AB6BC7
:104D600043F00073AB63ECE72C6803214FEA47285C
:104D700085F83410E362E06B2A4940F49570E063F3
:104D8000E86BC163284903654FEA9803C16404F1E5
:104D90008001FDF785FB286801246946C36A0594F4
:104DA00043F00803C3626B6C012B4FF0FF338DE8B7
:104DB00008014FF0900318BF760202930223039379
:104DC0000023049301F00CFC4FF40071286801F0FB
:104DD0001AFC48B12B6840F2FF529A63AB6B184340
:104DE000A86385F83440ABE7012F12D982233146FE
:104DF00028682B6301F037FC0028A2D02B6840F212
:104E0000FF529A63AB6B1843A863012085F8340006
:104E100097E78123314628682B6301F00CFCEBE710
:104E200002208EE7274F00088F540008F0B5044693
:104E300087B015461E460F4631B9836B43F00063B9
:104E40008363012007B0F0BD90F83400C0B20128A0
:104E500062D1EB18E16D00228B42A26304D9A36BEF
:104E600043F00073A363EDE7206803232B4984F824
:104E70003430C262C36B43F01A03C363236CD9633B
:104E800027491A65D9644FF40071636C012B18BF70
:104E90006D0201F0B8FB50B1236840F2FF529A63F3
:104EA000A36B1843A063012084F83400CAE7012EE5
:104EB0000FD9A02329462068236301F004FC05468E
:104EC000226868B140F2FF539363A06B0543A5636A
:104ED000E9E7902329462068236301F0DCFBEEE735
:104EE000D36A76028032394643F00803206C42F8D8
:104EF000543CB308FDF7D4FA4FF0FF3369462068FD
:104F0000039504958DE848009023029301230593AF
:104F100001F066FB284695E7022093E7514C000814
:104F20008F540008704710B5846B236B822B09D116
:104F3000206801F0E1FB28B1A36B1843A063204671
:104F4000FFF7F0FF23682046DA6A22F00802DA62EF
:104F500040F2FF529A63012384F8343002F002F9E0
:104F600010BD436E9A0F0A70C3F383624A70C3F395
:104F700001628A70C3F30742CA70C3F30722DBB22F
:104F80000A714B71836E1A0E1201CA80CA8830B53D
:104F900092B2C3F303542243CA80C3F303420A729A
:104FA000C3F30722D4094C72C2F380148C72C2F38B
:104FB0004014CC72C2F300140C7300244C73446C84
:104FC000002C40F0838092029B0002F4406203F4C4
:104FD0007F730A610A691343C26E0B610B6943EA6E
:104FE00092730B61C2F3C2630B75C2F302634B751C
:104FF000C2F342538B75C2F38243CB75D30B03F0DC
:1050000006030B76C2F307230C7EC2F3C0322243A1
:105010000A760A690C7E01320234A24001244265FC
:105020000D7AAC408465640A6243C2654FF4007235
:105030000266C3F380125B004A7603F07E038B7630
:10504000C36E8A7EC3F3C01403F07F0322438A76C3
:10505000CB76036FDA0FC3F381500A77C3F3417243
:105060004A77C3F382628A779A0D02F00C02CA77FC
:10507000CA7F02430020CA77C3F3405281F8202040
:10508000C3F3004281F8210081F82220C3F3C0322B
:1050900081F82320C3F3803281F82420C3F3403207
:1050A00081F82520C3F3003281F82620C3F3812242
:1050B00081F82720C3F30122C3F3460381F8282097
:1050C00081F82930012381F82A3030BD012C1AD112
:1050D0001B0403F47C130B61C36E0A691C0E42EAC5
:1050E00004220A61C3F307420C69C3F30723224376
:1050F0000A610A69920202F580624265C2654FF454
:105100000072826594E7036840F2FF529A63836BF2
:1051100043F080538363012380F83430184630BD58
:1051200070B5762398B0002504460C930AAB0A9517
:105130000B9507950895099593E8070007AB8DE84F
:10514000070020680ECB01F079F92068436823F44A
:105150008073436001F091F922680220536843F4A0
:1051600080735360FCF74AFF2068069501F0F6FA59
:10517000064668B9206801F019FB80B34FF6FF7549
:10518000A664069B5A1CAB42069208D14FF080766B
:10519000012084F83400A16B0E43A66383E0002154
:1051A000206801F03BFB014610B14FF08056EFE75D
:1051B000206801F04BFB01460028F6D1206801F081
:1051C00077F90028DDDA0023636401232068ADF855
:1051D000163001F056F920BB4FF080656DE00123D9
:1051E0004FF6FF75A364069B5A1CAB420692CDD0C6
:1051F0000021206801F012FB06460028C8D14FF0BC
:105200008041206801F022FB06460028C0D10146FB
:10521000206801F04DF90028E5DA4300D3D50123D9
:10522000D2E7636C032B1AD0206801F040FB0546DF
:10523000002842D10146206801F03AF90421606754
:10524000206801F035F90821A067206801F030F9E5
:105250000C21E067206801F02BF9C4F88000636C32
:10526000032B22D1636C032B2ED10421206801F083
:105270001FF90DA9000DE0642046FFF772FE226DB4
:1052800000232068120401F051FA0546A8B904F180
:10529000100393E80700231D8DE8070020680ECB5C
:1052A00001F0CCF8284618B070BD0DF11601206849
:1052B00001F028FB05460028D4D0012084F83400F2
:1052C000A36B1D43A563EEE7BDF8161020682165AA
:1052D000090401F001FB05460028EED101462068D3
:1052E00001F0E6F804216066206801F0E1F8082189
:1052F000A066206801F0DCF80C21E066206801F06F
:10530000D7F82067B1E710B50446A0B190F8343063
:1053100003F0FF0213B90277FCF742F9032320469A
:1053200084F83430FFF7FCFE00200123A0632063E3
:1053300084F8343010BD012010BD436C0B60836CC9
:105340004B60C36C8B60036DCB60436D0B61836DF1
:105350004B61C36D8B61036E0020CB6170470323EB
:1053600070B580F834308AB0436C04460E46032B87
:1053700002D0B1F5805F03D1A36B43F0805356E0B8
:10538000B1F5006F2DD1002100680491059101F065
:105390008FF8800120D404A92046FFF760FC60B993
:1053A000059B59031AD5216D2068090401F036FACE
:1053B00018B90221206801F029FBA36B1843A063F0
:1053C000A56B002D35D0236840F2FF5201209A636F
:1053D00084F834000AB070BD3046EEE74FF08060CC
:1053E000EBE709BB00680491059101F061F88201C7
:1053F00014D404A92046FFF732FC60B9059BDB03F7
:105400000FD5216D2068090401F008FA18B901468A
:10541000206801F0FBFAA16B0843D0E74FF400606D
:10542000F9E74FF08060F6E7836B43F00063A36316
:10543000C6E7636807960493A3680593E368069339
:1054400063690893A36909930AAB13E9070004ABE6
:105450008DE8070020680ECB00F0F0FF01232846FE
:1054600084F83430B6E7016D10B5090404460068CD
:1054700001F09CFA014628B9206801F019F8C0F340
:10548000432010BDA36B00201943A163F7E710B5BB
:10549000846BFDF742F8022826D0E36B5B6D012B8D
:1054A00003D0236C5B6D012B1BD1236840F2FF52AC
:1054B00020469A63DA6B22F49D72DA63A36B43F0A1
:1054C0008043A363FFF7CFFF0538C0B2012805D89A
:1054D000206801F011F9A36B1843A063012384F83D
:1054E00034302046FFF71EFD10BD38B50D4604468A
:1054F000C8B190F82C3003F0FF021BB980F82D20C2
:10550000FBF766FA0223211D206884F82C3000F096
:10551000C5FE62682946206800F0FFFE01230020D6
:1055200084F82C3038BD012038BD10B50446002861
:1055300030D090F8453003F0FF021BB980F84420CA
:10554000FCF794F821680223606884F845300B6802
:1055500023F003030B60A3690A680343A06822F4E5
:10556000EF220343E06822F47E7203432069034381
:1055700060690343E0690343206A0343606A0343AD
:10558000A06A0343002013430B600123A06484F846
:10559000453010BD012010BD70B5044600284ED026
:1055A0000023836290F85D3003F0FF021BB980F89E
:1055B0005C20FCF7AFF802232168E26884F85D30D4
:1055C0000B68B2F5E06F23F040030B604FF000036F
:1055D00032D91846B2F5706F18BFA362236B2BB98E
:1055E000B2F5E06F8CBF022301232363A6686368D2
:1055F000A56933432669334366693343E669334318
:10560000266A3343A66A334305F400762D0C3343F0
:1056100005F004050B60636A1A43636B1A432A435F
:10562000024300204A60CB6923F40063CB6101236D
:10563000206684F85D3070BD4FF48050CCE70120C7
:1056400070BD0000036A23F0010370B50362036AB2
:105650004268846923F002030D6824F4803424F046
:1056600073042C438D682B430E4DA84202D00E4E7E
:10567000B04211D123F00803CE68A84243EA0603E2
:1056800023F0040302D0084DA84205D14D6922F44D
:1056900040728E6935432A4342604A68846142639E
:1056A000036270BD0000014000040140036A23F45E
:1056B000807370B50362036A4268C46923F400739F
:1056C0000D6824F4803424F073042C438D6843EA7D
:1056D0000523114DA84203D005F58065A84214D1D9
:1056E000CD6823F4006343EA05230B4DA84223F45D
:1056F000806303D005F58065A84206D14D6922F488
:1057000040528E69354342EA051242604A68C461DC
:10571000C263036270BD00BF00000140036A23F44E
:10572000805330B50362026A4468C36922F40052B0
:105730000D6823F0807323F4E64343EA05238D6864
:1057400042EA0532084DA84203D005F58065A8421B
:1057500004D124F480444D6944EA85144460C36153
:105760004B680364026230BD00000140036A23F409
:10577000803330B50362026A4468436D22F400321C
:105780000D6823F4803323F070032B438D6842EAC5
:105790000542094DA84203D005F58065A84204D111
:1057A00024F480344D6944EA0524446043654B6821
:1057B0008365026230BD00BF00000140036A23F42C
:1057C000801330B50362026A4468436D22F400120C
:1057D0000D6823F0807323F4E04343EA05238D68CA
:1057E00042EA0552084DA84203D005F58065A8425B
:1057F00004D124F480244D6944EA8524446043653F
:105800004B68C365026230BD000001400368DA687E
:1058100042F00102DA60074A99680A40062A06D077
:10582000B2F5803F03D01A6842F001021A600020EE
:10583000704700BF0700010070477047704770470E
:1058400003681A69910710B504460FD5DA68920704
:105850000CD56FF002021A6101229B690277990749
:1058600000F08580FFF7E9FF0023237723681A699A
:10587000520710D5DA6850070DD56FF004022046A4
:105880001A6102229B69227713F4407F75D0FFF7DB
:10589000D4FF0023237723681A6911070FD5DA682C
:1058A00012070CD56FF0080220461A610422DB694A
:1058B00022779B0767D0FFF7C0FF00232377236879
:1058C0001A69D00610D5DA68D1060DD56FF010022E
:1058D00020461A610822DB69227713F4407F58D0F2
:1058E000FFF7ABFF0023237723681A69D20708D597
:1058F000DA68D00705D56FF0010220461A61FBF780
:105900007FFC23681A69110608D5DA68120605D5E6
:105910006FF0800220461A6100F0A7FA23681A6926
:10592000D00508D5DA68110605D56FF480722046D7
:105930001A6100F09BFA23681A69520608D5DA68E2
:10594000500605D56FF0400220461A61FFF777FF39
:1059500023681A69910622D5DA6892061FD56FF07E
:10596000200220461A61BDE8104000F07DBAFFF722
:1059700063FF2046FFF762FF76E7FFF75DFF2046F3
:10598000FFF75CFF85E7FFF757FF2046FFF756FF5D
:1059900093E7FFF751FF2046FFF750FFA2E710BD46
:1059A000304A0368904212D0B0F1804F0FD0A2F578
:1059B0007C4290420BD002F58062904207D002F503
:1059C0008062904203D002F57842904219D14A6831
:1059D00023F070031343234A904229D0B0F1804F43
:1059E00026D0A2F57C42904222D002F580629042FD
:1059F0001ED002F5806290421AD002F578429042A1
:105A000016D0194A904213D002F5806290420FD00E
:105A100002F5806290420BD0A2F59832904207D0F6
:105A200002F58062904203D002F58062904203D179
:105A300023F44073CA6813434A6923F08003134375
:105A400003608B68C3620B688362064B984203D085
:105A500003F58063984201D10B690363012343611D
:105A6000704700BF000001400040014010B50446EF
:105A7000A0B190F83D3003F0FF021BB980F83C2044
:105A8000FBF77EFF02232068211D84F83D30FFF7DD
:105A900087FF0123002084F83D3010BD012010BD98
:105AA00010B50446A0B190F83D3003F0FF021BB9D9
:105AB00080F83C20FBF7B8FF02232068211D84F802
:105AC0003D30FFF76DFF0123002084F83D3010BD0D
:105AD000012010BD036A23F0100370B50362036A4E
